{
  "_format": "hh-sol-artifact-1",
  "contractName": "ORCFetching",
  "sourceName": "contracts/orc-fetch-test.sol",
  "abi": [
    {
      "inputs": [],
      "name": "fetchPricesBasic",
      "outputs": [
        {
          "internalType": "uint256[]",
          "name": "",
          "type": "uint256[]"
        }
      ],
      "stateMutability": "view",
      "type": "function"
    }
  ],
  "bytecode": "0x608060405273a5e0829caced8ffdd4de3c43696c57f7d7a678ff6000806101000a81548173ffffffffffffffffffffffffffffffffffffffff021916908373ffffffffffffffffffffffffffffffffffffffff16021790555073c0788a3ad43d79aa53b09c2eacc313a787d1d607600160006101000a81548173ffffffffffffffffffffffffffffffffffffffff021916908373ffffffffffffffffffffffffffffffffffffffff1602179055503480156100b957600080fd5b50610901806100c96000396000f3fe608060405234801561001057600080fd5b506004361061002b5760003560e01c80635cdadb2614610030575b600080fd5b61003861004e565b604051610045919061065a565b60405180910390f35b606060006298968090506000600267ffffffffffffffff81111561009b577f4e487b7100000000000000000000000000000000000000000000000000000000600052604160045260246000fd5b6040519080825280602002602001820160405280156100c95781602001602082028036833780820191505090505b509050730d500b1d8e8ef31e21c99d1db9a6444d3adf12708160008151811061011b577f4e487b7100000000000000000000000000000000000000000000000000000000600052603260045260246000fd5b602002602001019073ffffffffffffffffffffffffffffffffffffffff16908173ffffffffffffffffffffffffffffffffffffffff168152505073c2132d05d31c914a87c6611c10748aeb04b58e8f816001815181106101a4577f4e487b7100000000000000000000000000000000000000000000000000000000600052603260045260246000fd5b602002602001019073ffffffffffffffffffffffffffffffffffffffff16908173ffffffffffffffffffffffffffffffffffffffff16815250506102846040518060600160405280602281526020016108aa602291398383600081518110610235577f4e487b7100000000000000000000000000000000000000000000000000000000600052603260045260246000fd5b602002602001015184600181518110610277577f4e487b7100000000000000000000000000000000000000000000000000000000600052603260045260246000fd5b6020026020010151610342565b60008060009054906101000a900473ffffffffffffffffffffffffffffffffffffffff1673ffffffffffffffffffffffffffffffffffffffff1663d06ca61f84846040518363ffffffff1660e01b81526004016102e29291906106c8565b60006040518083038186803b1580156102fa57600080fd5b505afa15801561030e573d6000803e3d6000fd5b505050506040513d6000823e3d601f19601f8201168201806040525081019061033791906104b8565b905080935050505090565b6103de8484848460405160240161035c949392919061067c565b6040516020818303038152906040527f5ea2b7ae000000000000000000000000000000000000000000000000000000007bffffffffffffffffffffffffffffffffffffffffffffffffffffffff19166020820180517bffffffffffffffffffffffffffffffffffffffffffffffffffffffff83818316178352505050506103e4565b50505050565b60008151905060006a636f6e736f6c652e6c6f679050602083016000808483855afa5050505050565b600061042061041b84610729565b6106f8565b9050808382526020820190508285602086028201111561043f57600080fd5b60005b8581101561046f578161045588826104a3565b845260208401935060208301925050600181019050610442565b5050509392505050565b600082601f83011261048a57600080fd5b815161049a84826020860161040d565b91505092915050565b6000815190506104b281610892565b92915050565b6000602082840312156104ca57600080fd5b600082015167ffffffffffffffff8111156104e457600080fd5b6104f084828501610479565b91505092915050565b60006105058383610529565b60208301905092915050565b600061051d838361063c565b60208301905092915050565b610532816107e3565b82525050565b610541816107e3565b82525050565b600061055282610775565b61055c81856107b0565b935061056783610755565b8060005b8381101561059857815161057f88826104f9565b975061058a83610796565b92505060018101905061056b565b5085935050505092915050565b60006105b082610780565b6105ba81856107c1565b93506105c583610765565b8060005b838110156105f65781516105dd8882610511565b97506105e8836107a3565b9250506001810190506105c9565b5085935050505092915050565b600061060e8261078b565b61061881856107d2565b935061062881856020860161081f565b61063181610881565b840191505092915050565b61064581610815565b82525050565b61065481610815565b82525050565b6000602082019050818103600083015261067481846105a5565b905092915050565b600060808201905081810360008301526106968187610603565b90506106a5602083018661064b565b6106b26040830185610538565b6106bf6060830184610538565b95945050505050565b60006040820190506106dd600083018561064b565b81810360208301526106ef8184610547565b90509392505050565b6000604051905081810181811067ffffffffffffffff8211171561071f5761071e610852565b5b8060405250919050565b600067ffffffffffffffff82111561074457610743610852565b5b602082029050602081019050919050565b6000819050602082019050919050565b6000819050602082019050919050565b600081519050919050565b600081519050919050565b600081519050919050565b6000602082019050919050565b6000602082019050919050565b600082825260208201905092915050565b600082825260208201905092915050565b600082825260208201905092915050565b60006107ee826107f5565b9050919050565b600073ffffffffffffffffffffffffffffffffffffffff82169050919050565b6000819050919050565b60005b8381101561083d578082015181840152602081019050610822565b8381111561084c576000848401525b50505050565b7f4e487b7100000000000000000000000000000000000000000000000000000000600052604160045260246000fd5b6000601f19601f8301169050919050565b61089b81610815565b81146108a657600080fd5b5056fe616d6f756e74496e3a2025732c2070617468303a2025732c2070617468313a202573a26469706673582212209dc35a1d0f6186199acb1fa26fd4d5fa6c333d33fd406036bf9b318e7874971964736f6c63430008000033",
  "linkReferences": {},
  "deployedLinkReferences": {}
}