{
  "_format": "hh-sol-artifact-1",
  "contractName": "ORCFetching",
  "sourceName": "contracts/orc-fetch-test.sol",
  "abi": [
    {
      "inputs": [],
      "name": "fetchPricesBasic",
      "outputs": [
        {
          "internalType": "uint256[]",
          "name": "",
          "type": "uint256[]"
        }
      ],
      "stateMutability": "view",
      "type": "function"
    }
  ],
  "bytecode": "0x608060405273a5e0829caced8ffdd4de3c43696c57f7d7a678ff6000806101000a81548173ffffffffffffffffffffffffffffffffffffffff021916908373ffffffffffffffffffffffffffffffffffffffff16021790555073c0788a3ad43d79aa53b09c2eacc313a787d1d607600160006101000a81548173ffffffffffffffffffffffffffffffffffffffff021916908373ffffffffffffffffffffffffffffffffffffffff1602179055503480156100b957600080fd5b5061067a806100c96000396000f3fe608060405234801561001057600080fd5b506004361061002b5760003560e01c80635cdadb2614610030575b600080fd5b61003861004e565b60405161004591906104a1565b60405180910390f35b606060006298968090506000600267ffffffffffffffff81111561009b577f4e487b7100000000000000000000000000000000000000000000000000000000600052604160045260246000fd5b6040519080825280602002602001820160405280156100c95781602001602082028036833780820191505090505b509050730d500b1d8e8ef31e21c99d1db9a6444d3adf12708160008151811061011b577f4e487b7100000000000000000000000000000000000000000000000000000000600052603260045260246000fd5b602002602001019073ffffffffffffffffffffffffffffffffffffffff16908173ffffffffffffffffffffffffffffffffffffffff168152505073c2132d05d31c914a87c6611c10748aeb04b58e8f816001815181106101a4577f4e487b7100000000000000000000000000000000000000000000000000000000600052603260045260246000fd5b602002602001019073ffffffffffffffffffffffffffffffffffffffff16908173ffffffffffffffffffffffffffffffffffffffff168152505060008060009054906101000a900473ffffffffffffffffffffffffffffffffffffffff1673ffffffffffffffffffffffffffffffffffffffff1663d06ca61f84846040518363ffffffff1660e01b815260040161023c9291906104c3565b60006040518083038186803b15801561025457600080fd5b505afa158015610268573d6000803e3d6000fd5b505050506040513d6000823e3d601f19601f820116820180604052508101906102919190610347565b905080935050505090565b60006102af6102aa84610524565b6104f3565b905080838252602082019050828560208602820111156102ce57600080fd5b60005b858110156102fe57816102e48882610332565b8452602084019350602083019250506001810190506102d1565b5050509392505050565b600082601f83011261031957600080fd5b815161032984826020860161029c565b91505092915050565b6000815190506103418161062d565b92915050565b60006020828403121561035957600080fd5b600082015167ffffffffffffffff81111561037357600080fd5b61037f84828501610308565b91505092915050565b600061039483836103b8565b60208301905092915050565b60006103ac8383610483565b60208301905092915050565b6103c1816105c2565b82525050565b60006103d282610570565b6103dc81856105a0565b93506103e783610550565b8060005b838110156104185781516103ff8882610388565b975061040a83610586565b9250506001810190506103eb565b5085935050505092915050565b60006104308261057b565b61043a81856105b1565b935061044583610560565b8060005b8381101561047657815161045d88826103a0565b975061046883610593565b925050600181019050610449565b5085935050505092915050565b61048c816105f4565b82525050565b61049b816105f4565b82525050565b600060208201905081810360008301526104bb8184610425565b905092915050565b60006040820190506104d86000830185610492565b81810360208301526104ea81846103c7565b90509392505050565b6000604051905081810181811067ffffffffffffffff8211171561051a576105196105fe565b5b8060405250919050565b600067ffffffffffffffff82111561053f5761053e6105fe565b5b602082029050602081019050919050565b6000819050602082019050919050565b6000819050602082019050919050565b600081519050919050565b600081519050919050565b6000602082019050919050565b6000602082019050919050565b600082825260208201905092915050565b600082825260208201905092915050565b60006105cd826105d4565b9050919050565b600073ffffffffffffffffffffffffffffffffffffffff82169050919050565b6000819050919050565b7f4e487b7100000000000000000000000000000000000000000000000000000000600052604160045260246000fd5b610636816105f4565b811461064157600080fd5b5056fea26469706673582212206fe58b88384fb8e25f3a1e3a20997976c52d2f38e250a1f5d36275fbc8a4e42b64736f6c63430008000033",
  "linkReferences": {},
  "deployedLinkReferences": {}
}